20181219-17:36:10.333591000 : 8=FIX.4.3|9=75|35=A|34=1|49=TESTINI|52=20181219-17:36:10.330|56=TESTACC|98=0|108=30|141=Y|10=085|
20181219-17:36:10.338274000 : 8=FIX.4.3|9=75|35=A|34=1|49=TESTACC|52=20181219-17:36:10.337|56=TESTINI|98=0|108=30|141=Y|10=092|
20181219-17:36:40.265404000 : 8=FIX.4.3|9=57|35=0|34=2|49=TESTINI|52=20181219-17:36:40.261|56=TESTACC|10=005|
20181219-17:36:40.268377000 : 8=FIX.4.3|9=57|35=0|34=2|49=TESTACC|52=20181219-17:36:40.267|56=TESTINI|10=011|
20181219-17:37:10.461908000 : 8=FIX.4.3|9=57|35=0|34=3|49=TESTACC|52=20181219-17:37:10.457|56=TESTINI|10=011|
20181219-17:37:10.466058000 : 8=FIX.4.3|9=57|35=0|34=3|49=TESTINI|52=20181219-17:37:10.464|56=TESTACC|10=009|
20181219-17:37:40.028034000 : 8=FIX.4.3|9=57|35=0|34=4|49=TESTINI|52=20181219-17:37:40.025|56=TESTACC|10=006|
20181219-17:37:40.029149000 : 8=FIX.4.3|9=57|35=0|34=4|49=TESTACC|52=20181219-17:37:40.028|56=TESTINI|10=009|
20181219-17:38:10.402722000 : 8=FIX.4.3|9=57|35=0|34=5|49=TESTINI|52=20181219-17:38:10.399|56=TESTACC|10=019|
20181219-17:38:10.407701000 : 8=FIX.4.3|9=57|35=0|34=5|49=TESTACC|52=20181219-17:38:10.405|56=TESTINI|10=007|
20181219-17:38:40.571200000 : 8=FIX.4.3|9=57|35=0|34=6|49=TESTINI|52=20181219-17:38:40.568|56=TESTACC|10=021|
20181219-17:38:40.574388000 : 8=FIX.4.3|9=57|35=0|34=6|49=TESTACC|52=20181219-17:38:40.572|56=TESTINI|10=016|
20181219-17:39:10.532825000 : 8=FIX.4.3|9=57|35=0|34=7|49=TESTINI|52=20181219-17:39:10.529|56=TESTACC|10=017|
20181219-17:39:10.536171000 : 8=FIX.4.3|9=57|35=0|34=7|49=TESTACC|52=20181219-17:39:10.534|56=TESTINI|10=013|
20181219-17:39:40.290737000 : 8=FIX.4.3|9=57|35=0|34=8|49=TESTINI|52=20181219-17:39:40.286|56=TESTACC|10=021|
20181219-17:39:40.294687000 : 8=FIX.4.3|9=57|35=0|34=8|49=TESTACC|52=20181219-17:39:40.292|56=TESTINI|10=018|
20181219-17:40:10.182158000 : 8=FIX.4.3|9=57|35=0|34=9|49=TESTACC|52=20181219-17:40:10.177|56=TESTINI|10=010|
20181219-17:40:10.186450000 : 8=FIX.4.3|9=57|35=0|34=9|49=TESTINI|52=20181219-17:40:10.184|56=TESTACC|10=008|
20181219-17:40:40.472879000 : 8=FIX.4.3|9=58|35=0|34=10|49=TESTINI|52=20181219-17:40:40.469|56=TESTACC|10=058|
20181219-17:40:40.476597000 : 8=FIX.4.3|9=58|35=0|34=10|49=TESTACC|52=20181219-17:40:40.474|56=TESTINI|10=054|
20181219-17:41:10.532348000 : 8=FIX.4.3|9=58|35=0|34=11|49=TESTINI|52=20181219-17:41:10.530|56=TESTACC|10=046|
20181219-17:41:10.536681000 : 8=FIX.4.3|9=58|35=0|34=11|49=TESTACC|52=20181219-17:41:10.534|56=TESTINI|10=050|
20181219-17:41:40.372234000 : 8=FIX.4.3|9=58|35=0|34=12|49=TESTINI|52=20181219-17:41:40.369|56=TESTACC|10=060|
20181219-17:41:40.375740000 : 8=FIX.4.3|9=58|35=0|34=12|49=TESTACC|52=20181219-17:41:40.374|56=TESTINI|10=056|
20181219-17:42:10.003398000 : 8=FIX.4.3|9=58|35=0|34=13|49=TESTINI|52=20181219-17:42:10.001|56=TESTACC|10=042|
20181219-17:42:10.005631000 : 8=FIX.4.3|9=58|35=0|34=13|49=TESTACC|52=20181219-17:42:10.004|56=TESTINI|10=045|
20181219-17:42:40.383597000 : 8=FIX.4.3|9=58|35=0|34=14|49=TESTINI|52=20181219-17:42:40.380|56=TESTACC|10=056|
20181219-17:42:40.387485000 : 8=FIX.4.3|9=58|35=0|34=14|49=TESTACC|52=20181219-17:42:40.385|56=TESTINI|10=061|
20181219-17:43:10.546756000 : 8=FIX.4.3|9=58|35=0|34=15|49=TESTINI|52=20181219-17:43:10.543|56=TESTACC|10=056|
20181219-17:43:10.549571000 : 8=FIX.4.3|9=58|35=0|34=15|49=TESTACC|52=20181219-17:43:10.548|56=TESTINI|10=061|
20181219-17:43:40.474663000 : 8=FIX.4.3|9=58|35=0|34=16|49=TESTINI|52=20181219-17:43:40.471|56=TESTACC|10=060|
20181219-17:43:40.477903000 : 8=FIX.4.3|9=58|35=0|34=16|49=TESTACC|52=20181219-17:43:40.476|56=TESTINI|10=065|
20181219-17:44:10.187278000 : 8=FIX.4.3|9=58|35=0|34=17|49=TESTINI|52=20181219-17:44:10.182|56=TESTACC|10=058|
20181219-17:44:10.192471000 : 8=FIX.4.3|9=58|35=0|34=17|49=TESTACC|52=20181219-17:44:10.190|56=TESTINI|10=057|
20181219-17:44:40.533721000 : 8=FIX.4.3|9=58|35=0|34=18|49=TESTINI|52=20181219-17:44:40.528|56=TESTACC|10=066|
20181219-17:44:40.537040000 : 8=FIX.4.3|9=58|35=0|34=18|49=TESTACC|52=20181219-17:44:40.535|56=TESTINI|10=064|
20181219-17:45:10.610279000 : 8=FIX.4.3|9=58|35=0|34=19|49=TESTINI|52=20181219-17:45:10.605|56=TESTACC|10=061|
20181219-17:45:10.617542000 : 8=FIX.4.3|9=58|35=0|34=19|49=TESTACC|52=20181219-17:45:10.614|56=TESTINI|10=061|
20181219-17:45:40.418281000 : 8=FIX.4.3|9=58|35=0|34=20|49=TESTINI|52=20181219-17:45:40.413|56=TESTACC|10=053|
20181219-17:45:40.423333000 : 8=FIX.4.3|9=58|35=0|34=20|49=TESTACC|52=20181219-17:45:40.420|56=TESTINI|10=051|
