2018-12-20 00:36:10,337 : R >> 8=FIX.4.3|9=75|35=A|34=1|49=TESTINI|52=20181219-17:36:10.330|56=TESTACC|98=0|108=30|141=Y|10=085|
2018-12-20 00:36:10,337 : S >> 8=FIX.4.3|9=75|35=A|34=1|49=TESTACC|52=20181219-17:36:10.337|56=TESTINI|98=0|108=30|141=Y|10=092|
2018-12-20 00:36:40,266 : R >> 8=FIX.4.3|9=57|35=0|34=2|49=TESTINI|52=20181219-17:36:40.261|56=TESTACC|10=005|
2018-12-20 00:36:40,267 : S >> 8=FIX.4.3|9=57|35=0|34=2|49=TESTACC|52=20181219-17:36:40.267|56=TESTINI|10=011|
2018-12-20 00:37:10,458 : S >> 8=FIX.4.3|9=57|35=0|34=3|49=TESTACC|52=20181219-17:37:10.457|56=TESTINI|10=011|
2018-12-20 00:37:10,466 : R >> 8=FIX.4.3|9=57|35=0|34=3|49=TESTINI|52=20181219-17:37:10.464|56=TESTACC|10=009|
2018-12-20 00:37:40,028 : R >> 8=FIX.4.3|9=57|35=0|34=4|49=TESTINI|52=20181219-17:37:40.025|56=TESTACC|10=006|
2018-12-20 00:37:40,028 : S >> 8=FIX.4.3|9=57|35=0|34=4|49=TESTACC|52=20181219-17:37:40.028|56=TESTINI|10=009|
2018-12-20 00:38:10,403 : R >> 8=FIX.4.3|9=57|35=0|34=5|49=TESTINI|52=20181219-17:38:10.399|56=TESTACC|10=019|
2018-12-20 00:38:10,405 : S >> 8=FIX.4.3|9=57|35=0|34=5|49=TESTACC|52=20181219-17:38:10.405|56=TESTINI|10=007|
2018-12-20 00:38:40,571 : R >> 8=FIX.4.3|9=57|35=0|34=6|49=TESTINI|52=20181219-17:38:40.568|56=TESTACC|10=021|
2018-12-20 00:38:40,573 : S >> 8=FIX.4.3|9=57|35=0|34=6|49=TESTACC|52=20181219-17:38:40.572|56=TESTINI|10=016|
2018-12-20 00:39:10,533 : R >> 8=FIX.4.3|9=57|35=0|34=7|49=TESTINI|52=20181219-17:39:10.529|56=TESTACC|10=017|
2018-12-20 00:39:10,534 : S >> 8=FIX.4.3|9=57|35=0|34=7|49=TESTACC|52=20181219-17:39:10.534|56=TESTINI|10=013|
2018-12-20 00:39:40,291 : R >> 8=FIX.4.3|9=57|35=0|34=8|49=TESTINI|52=20181219-17:39:40.286|56=TESTACC|10=021|
2018-12-20 00:39:40,292 : S >> 8=FIX.4.3|9=57|35=0|34=8|49=TESTACC|52=20181219-17:39:40.292|56=TESTINI|10=018|
2018-12-20 00:40:10,178 : S >> 8=FIX.4.3|9=57|35=0|34=9|49=TESTACC|52=20181219-17:40:10.177|56=TESTINI|10=010|
2018-12-20 00:40:10,186 : R >> 8=FIX.4.3|9=57|35=0|34=9|49=TESTINI|52=20181219-17:40:10.184|56=TESTACC|10=008|
2018-12-20 00:40:40,473 : R >> 8=FIX.4.3|9=58|35=0|34=10|49=TESTINI|52=20181219-17:40:40.469|56=TESTACC|10=058|
2018-12-20 00:40:40,474 : S >> 8=FIX.4.3|9=58|35=0|34=10|49=TESTACC|52=20181219-17:40:40.474|56=TESTINI|10=054|
2018-12-20 00:41:10,532 : R >> 8=FIX.4.3|9=58|35=0|34=11|49=TESTINI|52=20181219-17:41:10.530|56=TESTACC|10=046|
2018-12-20 00:41:10,534 : S >> 8=FIX.4.3|9=58|35=0|34=11|49=TESTACC|52=20181219-17:41:10.534|56=TESTINI|10=050|
2018-12-20 00:41:40,372 : R >> 8=FIX.4.3|9=58|35=0|34=12|49=TESTINI|52=20181219-17:41:40.369|56=TESTACC|10=060|
2018-12-20 00:41:40,374 : S >> 8=FIX.4.3|9=58|35=0|34=12|49=TESTACC|52=20181219-17:41:40.374|56=TESTINI|10=056|
2018-12-20 00:42:10,003 : R >> 8=FIX.4.3|9=58|35=0|34=13|49=TESTINI|52=20181219-17:42:10.001|56=TESTACC|10=042|
2018-12-20 00:42:10,004 : S >> 8=FIX.4.3|9=58|35=0|34=13|49=TESTACC|52=20181219-17:42:10.004|56=TESTINI|10=045|
2018-12-20 00:42:40,384 : R >> 8=FIX.4.3|9=58|35=0|34=14|49=TESTINI|52=20181219-17:42:40.380|56=TESTACC|10=056|
2018-12-20 00:42:40,385 : S >> 8=FIX.4.3|9=58|35=0|34=14|49=TESTACC|52=20181219-17:42:40.385|56=TESTINI|10=061|
2018-12-20 00:43:10,547 : R >> 8=FIX.4.3|9=58|35=0|34=15|49=TESTINI|52=20181219-17:43:10.543|56=TESTACC|10=056|
2018-12-20 00:43:10,548 : S >> 8=FIX.4.3|9=58|35=0|34=15|49=TESTACC|52=20181219-17:43:10.548|56=TESTINI|10=061|
2018-12-20 00:43:40,475 : R >> 8=FIX.4.3|9=58|35=0|34=16|49=TESTINI|52=20181219-17:43:40.471|56=TESTACC|10=060|
2018-12-20 00:43:40,476 : S >> 8=FIX.4.3|9=58|35=0|34=16|49=TESTACC|52=20181219-17:43:40.476|56=TESTINI|10=065|
2018-12-20 00:44:10,188 : R >> 8=FIX.4.3|9=58|35=0|34=17|49=TESTINI|52=20181219-17:44:10.182|56=TESTACC|10=058|
2018-12-20 00:44:10,190 : S >> 8=FIX.4.3|9=58|35=0|34=17|49=TESTACC|52=20181219-17:44:10.190|56=TESTINI|10=057|
2018-12-20 00:44:40,534 : R >> 8=FIX.4.3|9=58|35=0|34=18|49=TESTINI|52=20181219-17:44:40.528|56=TESTACC|10=066|
2018-12-20 00:44:40,535 : S >> 8=FIX.4.3|9=58|35=0|34=18|49=TESTACC|52=20181219-17:44:40.535|56=TESTINI|10=064|
2018-12-20 00:45:10,611 : R >> 8=FIX.4.3|9=58|35=0|34=19|49=TESTINI|52=20181219-17:45:10.605|56=TESTACC|10=061|
2018-12-20 00:45:10,614 : S >> 8=FIX.4.3|9=58|35=0|34=19|49=TESTACC|52=20181219-17:45:10.614|56=TESTINI|10=061|
2018-12-20 00:45:40,418 : R >> 8=FIX.4.3|9=58|35=0|34=20|49=TESTINI|52=20181219-17:45:40.413|56=TESTACC|10=053|
2018-12-20 00:45:40,420 : S >> 8=FIX.4.3|9=58|35=0|34=20|49=TESTACC|52=20181219-17:45:40.420|56=TESTINI|10=051|
